{
  "_format": "hh-sol-artifact-1",
  "contractName": "NFTMarketplace",
  "sourceName": "contracts/NFTMarketPlace.sol",
  "abi": [
    {
      "inputs": [
        {
          "internalType": "address",
          "name": "_nftAddress",
          "type": "address"
        }
      ],
      "stateMutability": "nonpayable",
      "type": "constructor"
    },
    {
      "anonymous": false,
      "inputs": [
        {
          "indexed": true,
          "internalType": "uint256",
          "name": "listingId",
          "type": "uint256"
        },
        {
          "indexed": true,
          "internalType": "uint256",
          "name": "tokenId",
          "type": "uint256"
        },
        {
          "indexed": false,
          "internalType": "address",
          "name": "seller",
          "type": "address"
        },
        {
          "indexed": false,
          "internalType": "uint256",
          "name": "price",
          "type": "uint256"
        }
      ],
      "name": "Listed",
      "type": "event"
    },
    {
      "anonymous": false,
      "inputs": [
        {
          "indexed": true,
          "internalType": "uint256",
          "name": "listingId",
          "type": "uint256"
        },
        {
          "indexed": true,
          "internalType": "uint256",
          "name": "tokenId",
          "type": "uint256"
        },
        {
          "indexed": false,
          "internalType": "address",
          "name": "buyer",
          "type": "address"
        },
        {
          "indexed": false,
          "internalType": "uint256",
          "name": "price",
          "type": "uint256"
        }
      ],
      "name": "Sale",
      "type": "event"
    },
    {
      "inputs": [
        {
          "internalType": "uint256",
          "name": "listingId",
          "type": "uint256"
        }
      ],
      "name": "buyItem",
      "outputs": [],
      "stateMutability": "payable",
      "type": "function"
    },
    {
      "inputs": [],
      "name": "fetchActiveListings",
      "outputs": [
        {
          "components": [
            {
              "internalType": "uint256",
              "name": "tokenId",
              "type": "uint256"
            },
            {
              "internalType": "address payable",
              "name": "seller",
              "type": "address"
            },
            {
              "internalType": "uint256",
              "name": "price",
              "type": "uint256"
            },
            {
              "internalType": "bool",
              "name": "isActive",
              "type": "bool"
            }
          ],
          "internalType": "struct NFTMarketplace.Listing[]",
          "name": "",
          "type": "tuple[]"
        }
      ],
      "stateMutability": "view",
      "type": "function"
    },
    {
      "inputs": [
        {
          "internalType": "address",
          "name": "owner",
          "type": "address"
        }
      ],
      "name": "getOwnedNFTs",
      "outputs": [
        {
          "internalType": "uint256[]",
          "name": "",
          "type": "uint256[]"
        }
      ],
      "stateMutability": "view",
      "type": "function"
    },
    {
      "inputs": [
        {
          "internalType": "uint256",
          "name": "tokenId",
          "type": "uint256"
        },
        {
          "internalType": "uint256",
          "name": "price",
          "type": "uint256"
        }
      ],
      "name": "listItem",
      "outputs": [],
      "stateMutability": "nonpayable",
      "type": "function"
    },
    {
      "inputs": [],
      "name": "listingCount",
      "outputs": [
        {
          "internalType": "uint256",
          "name": "",
          "type": "uint256"
        }
      ],
      "stateMutability": "view",
      "type": "function"
    },
    {
      "inputs": [
        {
          "internalType": "uint256",
          "name": "",
          "type": "uint256"
        }
      ],
      "name": "listings",
      "outputs": [
        {
          "internalType": "uint256",
          "name": "tokenId",
          "type": "uint256"
        },
        {
          "internalType": "address payable",
          "name": "seller",
          "type": "address"
        },
        {
          "internalType": "uint256",
          "name": "price",
          "type": "uint256"
        },
        {
          "internalType": "bool",
          "name": "isActive",
          "type": "bool"
        }
      ],
      "stateMutability": "view",
      "type": "function"
    },
    {
      "inputs": [],
      "name": "nft",
      "outputs": [
        {
          "internalType": "contract MyNFT",
          "name": "",
          "type": "address"
        }
      ],
      "stateMutability": "view",
      "type": "function"
    }
  ],
  "bytecode": "0x6080604052348015600f57600080fd5b50604051610b51380380610b51833981016040819052602c916050565b600080546001600160a01b0319166001600160a01b0392909216919091179055607e565b600060208284031215606157600080fd5b81516001600160a01b0381168114607757600080fd5b9392505050565b610ac48061008d6000396000f3fe6080604052600436106100705760003560e01c8063883efa671161004e578063883efa6714610105578063a9b07c2614610127578063de74e57b1461014b578063e7fb74c7146101c557600080fd5b806318148f1b1461007557806347ccca02146100ab5780634fd809b3146100e3575b600080fd5b34801561008157600080fd5b50610095610090366004610908565b6101d8565b6040516100a2919061092c565b60405180910390f35b3480156100b757600080fd5b506000546100cb906001600160a01b031681565b6040516001600160a01b0390911681526020016100a2565b3480156100ef57600080fd5b506100f86103f9565b6040516100a29190610964565b34801561011157600080fd5b506101256101203660046109ca565b61055c565b005b34801561013357600080fd5b5061013d60015481565b6040519081526020016100a2565b34801561015757600080fd5b5061019b6101663660046109ec565b6002602081905260009182526040909120805460018201549282015460039092015490926001600160a01b0316919060ff1684565b604080519485526001600160a01b03909316602085015291830152151560608201526080016100a2565b6101256101d33660046109ec565b61074f565b600080546040805163115ae14360e01b81529051606093926001600160a01b03169163115ae1439160048083019260209291908290030181865afa158015610224573d6000803e3d6000fd5b505050506040513d601f19601f820116820180604052508101906102489190610a05565b90506000805b828110156102e9576000546040516331a9108f60e11b8152600481018390526001600160a01b03878116921690636352211e90602401602060405180830381865afa1580156102a1573d6000803e3d6000fd5b505050506040513d601f19601f820116820180604052508101906102c59190610a1e565b6001600160a01b0316036102e1576102de600183610a3b565b91505b60010161024e565b5060008167ffffffffffffffff81111561030557610305610a62565b60405190808252806020026020018201604052801561032e578160200160208202803683370190505b5090506000805b848110156103ee576000546040516331a9108f60e11b8152600481018390526001600160a01b03898116921690636352211e90602401602060405180830381865afa158015610388573d6000803e3d6000fd5b505050506040513d601f19601f820116820180604052508101906103ac9190610a1e565b6001600160a01b0316036103e657808383815181106103cd576103cd610a78565b60209081029190910101526103e3600183610a3b565b91505b600101610335565b509095945050505050565b60606000805b6001548110156104395760008181526002602052604090206003015460ff16156104315761042e600183610a3b565b91505b6001016103ff565b5060008167ffffffffffffffff81111561045557610455610a62565b6040519080825280602002602001820160405280156104a757816020015b6040805160808101825260008082526020808301829052928201819052606082015282526000199092019101816104735790505b5090506000805b6001548110156105535760008181526002602052604090206003015460ff161561054b5760008181526002602081815260409283902083516080810185528154815260018201546001600160a01b03169281019290925291820154928101929092526003015460ff1615156060820152835184908490811061053257610532610a78565b6020908102919091010152610548600183610a3b565b91505b6001016104ae565b50909392505050565b6000546040516331a9108f60e11b81526004810184905233916001600160a01b031690636352211e90602401602060405180830381865afa1580156105a5573d6000803e3d6000fd5b505050506040513d601f19601f820116820180604052508101906105c99190610a1e565b6001600160a01b0316146106145760405162461bcd60e51b815260206004820152600d60248201526c2737ba103a34329037bbb732b960991b60448201526064015b60405180910390fd5b6000546040516323b872dd60e01b8152336004820152306024820152604481018490526001600160a01b03909116906323b872dd90606401600060405180830381600087803b15801561066657600080fd5b505af115801561067a573d6000803e3d6000fd5b5050604080516080810182528581523360208083018281528385018881526001606086018181528154600090815260028087529089902097518855935187830180546001600160a01b0319166001600160a01b03909216919091179055915192860192909255516003909401805460ff191694151594909417909355915483519182529181018690528694509092507fcf4ebbb01b0166b4c3bb06d2edd4860d56a19f40c14454fdeb07220bf1752924910160405180910390a360018060008282546107469190610a3b565b90915550505050565b6000818152600260205260409020600381015460ff166107a95760405162461bcd60e51b81526020600482015260156024820152744c697374696e67206973206e6f742061637469766560581b604482015260640161060b565b80600201543410156107f45760405162461bcd60e51b8152602060048201526014602482015273125b9cdd59999a58da595b9d081c185e5b595b9d60621b604482015260640161060b565b60038101805460ff1916905560005481546040516323b872dd60e01b815230600482015233602482015260448101919091526001600160a01b03909116906323b872dd90606401600060405180830381600087803b15801561085557600080fd5b505af1158015610869573d6000803e3d6000fd5b50505060018201546040516001600160a01b0390911691503480156108fc02916000818181858888f193505050501580156108a8573d6000803e3d6000fd5b508054600282015460408051338152602081019290925284917fffc865dadac95361c3265b19770bd4d6677fc28af384e9fe62125f3e6d89f1fd910160405180910390a35050565b6001600160a01b038116811461090557600080fd5b50565b60006020828403121561091a57600080fd5b8135610925816108f0565b9392505050565b602080825282518282018190526000918401906040840190835b818110156103ee578351835260209384019390920191600101610946565b602080825282518282018190526000918401906040840190835b818110156103ee578351805184526020808201516001600160a01b031681860152604080830151908601526060918201511515918501919091529093019260809092019160010161097e565b600080604083850312156109dd57600080fd5b50508035926020909101359150565b6000602082840312156109fe57600080fd5b5035919050565b600060208284031215610a1757600080fd5b5051919050565b600060208284031215610a3057600080fd5b8151610925816108f0565b80820180821115610a5c57634e487b7160e01b600052601160045260246000fd5b92915050565b634e487b7160e01b600052604160045260246000fd5b634e487b7160e01b600052603260045260246000fdfea26469706673582212200a64f595402b62973106ecd8e6940a71d0118622e2fa93e1a4e1cfdfbb310a0864736f6c634300081b0033",
  "linkReferences": {},
  "deployedLinkReferences": {}
}