{
    "_format": "hh-sol-artifact-1",
    "contractName": "MyNFT",
    "sourceName": "contracts/MyNFT.sol",
    "abi": [
        {
            "inputs": [],
            "stateMutability": "nonpayable",
            "type": "constructor"
        },
        {
            "inputs": [
                {
                    "internalType": "address",
                    "name": "sender",
                    "type": "address"
                },
                {
                    "internalType": "uint256",
                    "name": "tokenId",
                    "type": "uint256"
                },
                {
                    "internalType": "address",
                    "name": "owner",
                    "type": "address"
                }
            ],
            "name": "ERC721IncorrectOwner",
            "type": "error"
        },
        {
            "inputs": [
                {
                    "internalType": "address",
                    "name": "operator",
                    "type": "address"
                },
                {
                    "internalType": "uint256",
                    "name": "tokenId",
                    "type": "uint256"
                }
            ],
            "name": "ERC721InsufficientApproval",
            "type": "error"
        },
        {
            "inputs": [
                {
                    "internalType": "address",
                    "name": "approver",
                    "type": "address"
                }
            ],
            "name": "ERC721InvalidApprover",
            "type": "error"
        },
        {
            "inputs": [
                {
                    "internalType": "address",
                    "name": "operator",
                    "type": "address"
                }
            ],
            "name": "ERC721InvalidOperator",
            "type": "error"
        },
        {
            "inputs": [
                {
                    "internalType": "address",
                    "name": "owner",
                    "type": "address"
                }
            ],
            "name": "ERC721InvalidOwner",
            "type": "error"
        },
        {
            "inputs": [
                {
                    "internalType": "address",
                    "name": "receiver",
                    "type": "address"
                }
            ],
            "name": "ERC721InvalidReceiver",
            "type": "error"
        },
        {
            "inputs": [
                {
                    "internalType": "address",
                    "name": "sender",
                    "type": "address"
                }
            ],
            "name": "ERC721InvalidSender",
            "type": "error"
        },
        {
            "inputs": [
                {
                    "internalType": "uint256",
                    "name": "tokenId",
                    "type": "uint256"
                }
            ],
            "name": "ERC721NonexistentToken",
            "type": "error"
        },
        {
            "inputs": [
                {
                    "internalType": "address",
                    "name": "owner",
                    "type": "address"
                }
            ],
            "name": "OwnableInvalidOwner",
            "type": "error"
        },
        {
            "inputs": [
                {
                    "internalType": "address",
                    "name": "account",
                    "type": "address"
                }
            ],
            "name": "OwnableUnauthorizedAccount",
            "type": "error"
        },
        {
            "anonymous": false,
            "inputs": [
                {
                    "indexed": true,
                    "internalType": "address",
                    "name": "owner",
                    "type": "address"
                },
                {
                    "indexed": true,
                    "internalType": "address",
                    "name": "approved",
                    "type": "address"
                },
                {
                    "indexed": true,
                    "internalType": "uint256",
                    "name": "tokenId",
                    "type": "uint256"
                }
            ],
            "name": "Approval",
            "type": "event"
        },
        {
            "anonymous": false,
            "inputs": [
                {
                    "indexed": true,
                    "internalType": "address",
                    "name": "owner",
                    "type": "address"
                },
                {
                    "indexed": true,
                    "internalType": "address",
                    "name": "operator",
                    "type": "address"
                },
                {
                    "indexed": false,
                    "internalType": "bool",
                    "name": "approved",
                    "type": "bool"
                }
            ],
            "name": "ApprovalForAll",
            "type": "event"
        },
        {
            "anonymous": false,
            "inputs": [
                {
                    "indexed": false,
                    "internalType": "uint256",
                    "name": "_fromTokenId",
                    "type": "uint256"
                },
                {
                    "indexed": false,
                    "internalType": "uint256",
                    "name": "_toTokenId",
                    "type": "uint256"
                }
            ],
            "name": "BatchMetadataUpdate",
            "type": "event"
        },
        {
            "anonymous": false,
            "inputs": [
                {
                    "indexed": false,
                    "internalType": "uint256",
                    "name": "_tokenId",
                    "type": "uint256"
                }
            ],
            "name": "MetadataUpdate",
            "type": "event"
        },
        {
            "anonymous": false,
            "inputs": [
                {
                    "indexed": true,
                    "internalType": "address",
                    "name": "previousOwner",
                    "type": "address"
                },
                {
                    "indexed": true,
                    "internalType": "address",
                    "name": "newOwner",
                    "type": "address"
                }
            ],
            "name": "OwnershipTransferred",
            "type": "event"
        },
        {
            "anonymous": false,
            "inputs": [
                {
                    "indexed": true,
                    "internalType": "address",
                    "name": "from",
                    "type": "address"
                },
                {
                    "indexed": true,
                    "internalType": "address",
                    "name": "to",
                    "type": "address"
                },
                {
                    "indexed": true,
                    "internalType": "uint256",
                    "name": "tokenId",
                    "type": "uint256"
                }
            ],
            "name": "Transfer",
            "type": "event"
        },
        {
            "inputs": [
                {
                    "internalType": "address",
                    "name": "to",
                    "type": "address"
                },
                {
                    "internalType": "uint256",
                    "name": "tokenId",
                    "type": "uint256"
                }
            ],
            "name": "approve",
            "outputs": [],
            "stateMutability": "nonpayable",
            "type": "function"
        },
        {
            "inputs": [
                {
                    "internalType": "address",
                    "name": "owner",
                    "type": "address"
                }
            ],
            "name": "balanceOf",
            "outputs": [
                {
                    "internalType": "uint256",
                    "name": "",
                    "type": "uint256"
                }
            ],
            "stateMutability": "view",
            "type": "function"
        },
        {
            "inputs": [
                {
                    "internalType": "string",
                    "name": "tokenURI",
                    "type": "string"
                }
            ],
            "name": "createNFT",
            "outputs": [
                {
                    "internalType": "uint256",
                    "name": "",
                    "type": "uint256"
                }
            ],
            "stateMutability": "nonpayable",
            "type": "function"
        },
        {
            "inputs": [
                {
                    "internalType": "uint256",
                    "name": "tokenId",
                    "type": "uint256"
                }
            ],
            "name": "getApproved",
            "outputs": [
                {
                    "internalType": "address",
                    "name": "",
                    "type": "address"
                }
            ],
            "stateMutability": "view",
            "type": "function"
        },
        {
            "inputs": [
                {
                    "internalType": "address",
                    "name": "owner",
                    "type": "address"
                },
                {
                    "internalType": "address",
                    "name": "operator",
                    "type": "address"
                }
            ],
            "name": "isApprovedForAll",
            "outputs": [
                {
                    "internalType": "bool",
                    "name": "",
                    "type": "bool"
                }
            ],
            "stateMutability": "view",
            "type": "function"
        },
        {
            "inputs": [],
            "name": "name",
            "outputs": [
                {
                    "internalType": "string",
                    "name": "",
                    "type": "string"
                }
            ],
            "stateMutability": "view",
            "type": "function"
        },
        {
            "inputs": [],
            "name": "owner",
            "outputs": [
                {
                    "internalType": "address",
                    "name": "",
                    "type": "address"
                }
            ],
            "stateMutability": "view",
            "type": "function"
        },
        {
            "inputs": [
                {
                    "internalType": "uint256",
                    "name": "tokenId",
                    "type": "uint256"
                }
            ],
            "name": "ownerOf",
            "outputs": [
                {
                    "internalType": "address",
                    "name": "",
                    "type": "address"
                }
            ],
            "stateMutability": "view",
            "type": "function"
        },
        {
            "inputs": [],
            "name": "renounceOwnership",
            "outputs": [],
            "stateMutability": "nonpayable",
            "type": "function"
        },
        {
            "inputs": [
                {
                    "internalType": "address",
                    "name": "from",
                    "type": "address"
                },
                {
                    "internalType": "address",
                    "name": "to",
                    "type": "address"
                },
                {
                    "internalType": "uint256",
                    "name": "tokenId",
                    "type": "uint256"
                }
            ],
            "name": "safeTransferFrom",
            "outputs": [],
            "stateMutability": "nonpayable",
            "type": "function"
        },
        {
            "inputs": [
                {
                    "internalType": "address",
                    "name": "from",
                    "type": "address"
                },
                {
                    "internalType": "address",
                    "name": "to",
                    "type": "address"
                },
                {
                    "internalType": "uint256",
                    "name": "tokenId",
                    "type": "uint256"
                },
                {
                    "internalType": "bytes",
                    "name": "data",
                    "type": "bytes"
                }
            ],
            "name": "safeTransferFrom",
            "outputs": [],
            "stateMutability": "nonpayable",
            "type": "function"
        },
        {
            "inputs": [
                {
                    "internalType": "address",
                    "name": "operator",
                    "type": "address"
                },
                {
                    "internalType": "bool",
                    "name": "approved",
                    "type": "bool"
                }
            ],
            "name": "setApprovalForAll",
            "outputs": [],
            "stateMutability": "nonpayable",
            "type": "function"
        },
        {
            "inputs": [
                {
                    "internalType": "bytes4",
                    "name": "interfaceId",
                    "type": "bytes4"
                }
            ],
            "name": "supportsInterface",
            "outputs": [
                {
                    "internalType": "bool",
                    "name": "",
                    "type": "bool"
                }
            ],
            "stateMutability": "view",
            "type": "function"
        },
        {
            "inputs": [],
            "name": "symbol",
            "outputs": [
                {
                    "internalType": "string",
                    "name": "",
                    "type": "string"
                }
            ],
            "stateMutability": "view",
            "type": "function"
        },
        {
            "inputs": [
                {
                    "internalType": "uint256",
                    "name": "tokenId",
                    "type": "uint256"
                }
            ],
            "name": "tokenURI",
            "outputs": [
                {
                    "internalType": "string",
                    "name": "",
                    "type": "string"
                }
            ],
            "stateMutability": "view",
            "type": "function"
        },
        {
            "inputs": [],
            "name": "tokencounter",
            "outputs": [
                {
                    "internalType": "uint256",
                    "name": "",
                    "type": "uint256"
                }
            ],
            "stateMutability": "view",
            "type": "function"
        },
        {
            "inputs": [
                {
                    "internalType": "address",
                    "name": "from",
                    "type": "address"
                },
                {
                    "internalType": "address",
                    "name": "to",
                    "type": "address"
                },
                {
                    "internalType": "uint256",
                    "name": "tokenId",
                    "type": "uint256"
                }
            ],
            "name": "transferFrom",
            "outputs": [],
            "stateMutability": "nonpayable",
            "type": "function"
        },
        {
            "inputs": [
                {
                    "internalType": "address",
                    "name": "newOwner",
                    "type": "address"
                }
            ],
            "name": "transferOwnership",
            "outputs": [],
            "stateMutability": "nonpayable",
            "type": "function"
        }
    ],
    "bytecode": "0x608060405234801561001057600080fd5b503360405180604001604052806005815260200164135e53919560da1b815250604051806040016040528060048152602001631353919560e21b815250816000908161005c919061019f565b506001610069828261019f565b5050506001600160a01b03811661009a57604051631e4fbdf760e01b81526000600482015260240160405180910390fd5b6100a3816100ae565b50600060085561025d565b600780546001600160a01b038381166001600160a01b0319831681179093556040519116919082907f8be0079c531659141344cd1fd0a4f28419497f9722a3daafe3b4186f6b6457e090600090a35050565b634e487b7160e01b600052604160045260246000fd5b600181811c9082168061012a57607f821691505b60208210810361014a57634e487b7160e01b600052602260045260246000fd5b50919050565b601f82111561019a57806000526020600020601f840160051c810160208510156101775750805b601f840160051c820191505b818110156101975760008155600101610183565b50505b505050565b81516001600160401b038111156101b8576101b8610100565b6101cc816101c68454610116565b84610150565b6020601f82116001811461020057600083156101e85750848201515b600019600385901b1c1916600184901b178455610197565b600084815260208120601f198516915b828110156102305787850151825560209485019460019092019101610210565b508482101561024e5786840151600019600387901b60f8161c191681555b50505050600190811b01905550565b61141f8061026c6000396000f3fe608060405234801561001057600080fd5b50600436106101165760003560e01c8063715018a6116100a2578063b88d4fde11610071578063b88d4fde1461022f578063c87b56dd14610242578063da2ed03e14610255578063e985e9c514610268578063f2fde38b1461027b57600080fd5b8063715018a6146101fb5780638da5cb5b1461020357806395d89b4114610214578063a22cb4651461021c57600080fd5b8063115ae143116100e9578063115ae1431461019857806323b872dd146101af57806342842e0e146101c25780636352211e146101d557806370a08231146101e857600080fd5b806301ffc9a71461011b57806306fdde0314610143578063081812fc14610158578063095ea7b314610183575b600080fd5b61012e610129366004610f09565b61028e565b60405190151581526020015b60405180910390f35b61014b6102b9565b60405161013a9190610f76565b61016b610166366004610f89565b61034b565b6040516001600160a01b03909116815260200161013a565b610196610191366004610fb9565b610374565b005b6101a160085481565b60405190815260200161013a565b6101966101bd366004610fe3565b610383565b6101966101d0366004610fe3565b610413565b61016b6101e3366004610f89565b610433565b6101a16101f6366004611020565b61043e565b610196610486565b6007546001600160a01b031661016b565b61014b61049a565b61019661022a36600461103b565b6104a9565b61019661023d366004611107565b6104b4565b61014b610250366004610f89565b6104cb565b6101a1610263366004611183565b6105dc565b61012e6102763660046111cc565b61061e565b610196610289366004611020565b61064c565b60006001600160e01b03198216632483248360e11b14806102b357506102b38261068a565b92915050565b6060600080546102c8906111ff565b80601f01602080910402602001604051908101604052809291908181526020018280546102f4906111ff565b80156103415780601f1061031657610100808354040283529160200191610341565b820191906000526020600020905b81548152906001019060200180831161032457829003601f168201915b5050505050905090565b6000610356826106da565b506000828152600460205260409020546001600160a01b03166102b3565b61037f828233610713565b5050565b6001600160a01b0382166103b257604051633250574960e11b8152600060048201526024015b60405180910390fd5b60006103bf838333610720565b9050836001600160a01b0316816001600160a01b03161461040d576040516364283d7b60e01b81526001600160a01b03808616600483015260248201849052821660448201526064016103a9565b50505050565b61042e838383604051806020016040528060008152506104b4565b505050565b60006102b3826106da565b60006001600160a01b03821661046a576040516322718ad960e21b8152600060048201526024016103a9565b506001600160a01b031660009081526003602052604090205490565b61048e610819565b6104986000610846565b565b6060600180546102c8906111ff565b61037f338383610898565b6104bf848484610383565b61040d84848484610937565b60606104d6826106da565b50600082815260066020526040812080546104f0906111ff565b80601f016020809104026020016040519081016040528092919081815260200182805461051c906111ff565b80156105695780601f1061053e57610100808354040283529160200191610569565b820191906000526020600020905b81548152906001019060200180831161054c57829003601f168201915b50505050509050600061058760408051602081019091526000815290565b90508051600003610599575092915050565b8151156105cb5780826040516020016105b3929190611239565b60405160208183030381529060405292505050919050565b6105d484610a60565b949350505050565b60006105e6610819565b6008546105f33382610ad5565b6105fd8184610aef565b6001600860008282546106109190611268565b90915550909150505b919050565b6001600160a01b03918216600090815260056020908152604080832093909416825291909152205460ff1690565b610654610819565b6001600160a01b03811661067e57604051631e4fbdf760e01b8152600060048201526024016103a9565b61068781610846565b50565b60006001600160e01b031982166380ac58cd60e01b14806106bb57506001600160e01b03198216635b5e139f60e01b145b806102b357506301ffc9a760e01b6001600160e01b03198316146102b3565b6000818152600260205260408120546001600160a01b0316806102b357604051637e27328960e01b8152600481018490526024016103a9565b61042e8383836001610b3f565b6000828152600260205260408120546001600160a01b039081169083161561074d5761074d818486610c45565b6001600160a01b0381161561078b5761076a600085600080610b3f565b6001600160a01b038116600090815260036020526040902080546000190190555b6001600160a01b038516156107ba576001600160a01b0385166000908152600360205260409020805460010190555b60008481526002602052604080822080546001600160a01b0319166001600160a01b0389811691821790925591518793918516917fddf252ad1be2c89b69c2b068fc378daa952ba7f163c4a11628f55a4df523b3ef91a4949350505050565b6007546001600160a01b031633146104985760405163118cdaa760e01b81523360048201526024016103a9565b600780546001600160a01b038381166001600160a01b0319831681179093556040519116919082907f8be0079c531659141344cd1fd0a4f28419497f9722a3daafe3b4186f6b6457e090600090a35050565b6001600160a01b0382166108ca57604051630b61174360e31b81526001600160a01b03831660048201526024016103a9565b6001600160a01b03838116600081815260056020908152604080832094871680845294825291829020805460ff191686151590811790915591519182527f17307eab39ab6107e8899845ad3d59bd9653f200f220920489ca2b5937696c31910160405180910390a3505050565b6001600160a01b0383163b1561040d57604051630a85bd0160e11b81526001600160a01b0384169063150b7a0290610979903390889087908790600401611289565b6020604051808303816000875af19250505080156109b4575060408051601f3d908101601f191682019092526109b1918101906112c6565b60015b610a1d573d8080156109e2576040519150601f19603f3d011682016040523d82523d6000602084013e6109e7565b606091505b508051600003610a1557604051633250574960e11b81526001600160a01b03851660048201526024016103a9565b805181602001fd5b6001600160e01b03198116630a85bd0160e11b14610a5957604051633250574960e11b81526001600160a01b03851660048201526024016103a9565b5050505050565b6060610a6b826106da565b506000610a8360408051602081019091526000815290565b90506000815111610aa35760405180602001604052806000815250610ace565b80610aad84610ca9565b604051602001610abe929190611239565b6040516020818303038152906040525b9392505050565b61037f828260405180602001604052806000815250610d3c565b6000828152600660205260409020610b07828261132a565b506040518281527ff8e1a15aba9398e019f0b49df1a4fde98ee17ae345cb5f6b5e2c27f5033e8ce79060200160405180910390a15050565b8080610b5357506001600160a01b03821615155b15610c15576000610b63846106da565b90506001600160a01b03831615801590610b8f5750826001600160a01b0316816001600160a01b031614155b8015610ba25750610ba0818461061e565b155b15610bcb5760405163a9fbf51f60e01b81526001600160a01b03841660048201526024016103a9565b8115610c135783856001600160a01b0316826001600160a01b03167f8c5be1e5ebec7d5bd14f71427d1e84f3dd0314c0f7b2291e5b200ac8c7c3b92560405160405180910390a45b505b5050600090815260046020526040902080546001600160a01b0319166001600160a01b0392909216919091179055565b610c50838383610d53565b61042e576001600160a01b038316610c7e57604051637e27328960e01b8152600481018290526024016103a9565b60405163177e802f60e01b81526001600160a01b0383166004820152602481018290526044016103a9565b60606000610cb683610db6565b600101905060008167ffffffffffffffff811115610cd657610cd6611077565b6040519080825280601f01601f191660200182016040528015610d00576020820181803683370190505b5090508181016020015b600019016f181899199a1a9b1b9c1cb0b131b232b360811b600a86061a8153600a8504945084610d0a57509392505050565b610d468383610e8e565b61042e6000848484610937565b60006001600160a01b038316158015906105d45750826001600160a01b0316846001600160a01b03161480610d8d5750610d8d848461061e565b806105d45750506000908152600460205260409020546001600160a01b03908116911614919050565b60008072184f03e93ff9f4daa797ed6e38ed64bf6a1f0160401b8310610df55772184f03e93ff9f4daa797ed6e38ed64bf6a1f0160401b830492506040015b6d04ee2d6d415b85acef81000000008310610e21576d04ee2d6d415b85acef8100000000830492506020015b662386f26fc100008310610e3f57662386f26fc10000830492506010015b6305f5e1008310610e57576305f5e100830492506008015b6127108310610e6b57612710830492506004015b60648310610e7d576064830492506002015b600a83106102b35760010192915050565b6001600160a01b038216610eb857604051633250574960e11b8152600060048201526024016103a9565b6000610ec683836000610720565b90506001600160a01b0381161561042e576040516339e3563760e11b8152600060048201526024016103a9565b6001600160e01b03198116811461068757600080fd5b600060208284031215610f1b57600080fd5b8135610ace81610ef3565b60005b83811015610f41578181015183820152602001610f29565b50506000910152565b60008151808452610f62816020860160208601610f26565b601f01601f19169290920160200192915050565b602081526000610ace6020830184610f4a565b600060208284031215610f9b57600080fd5b5035919050565b80356001600160a01b038116811461061957600080fd5b60008060408385031215610fcc57600080fd5b610fd583610fa2565b946020939093013593505050565b600080600060608486031215610ff857600080fd5b61100184610fa2565b925061100f60208501610fa2565b929592945050506040919091013590565b60006020828403121561103257600080fd5b610ace82610fa2565b6000806040838503121561104e57600080fd5b61105783610fa2565b91506020830135801515811461106c57600080fd5b809150509250929050565b634e487b7160e01b600052604160045260246000fd5b60008067ffffffffffffffff8411156110a8576110a8611077565b50604051601f19601f85018116603f0116810181811067ffffffffffffffff821117156110d7576110d7611077565b6040528381529050808284018510156110ef57600080fd5b83836020830137600060208583010152509392505050565b6000806000806080858703121561111d57600080fd5b61112685610fa2565b935061113460208601610fa2565b925060408501359150606085013567ffffffffffffffff81111561115757600080fd5b8501601f8101871361116857600080fd5b6111778782356020840161108d565b91505092959194509250565b60006020828403121561119557600080fd5b813567ffffffffffffffff8111156111ac57600080fd5b8201601f810184136111bd57600080fd5b6105d48482356020840161108d565b600080604083850312156111df57600080fd5b6111e883610fa2565b91506111f660208401610fa2565b90509250929050565b600181811c9082168061121357607f821691505b60208210810361123357634e487b7160e01b600052602260045260246000fd5b50919050565b6000835161124b818460208801610f26565b83519083019061125f818360208801610f26565b01949350505050565b808201808211156102b357634e487b7160e01b600052601160045260246000fd5b6001600160a01b03858116825284166020820152604081018390526080606082018190526000906112bc90830184610f4a565b9695505050505050565b6000602082840312156112d857600080fd5b8151610ace81610ef3565b601f82111561042e57806000526020600020601f840160051c8101602085101561130a5750805b601f840160051c820191505b81811015610a595760008155600101611316565b815167ffffffffffffffff81111561134457611344611077565b6113588161135284546111ff565b846112e3565b6020601f82116001811461138c57600083156113745750848201515b600019600385901b1c1916600184901b178455610a59565b600084815260208120601f198516915b828110156113bc578785015182556020948501946001909201910161139c565b50848210156113da5786840151600019600387901b60f8161c191681555b50505050600190811b0190555056fea2646970667358221220aee02eb9b24c34a23fcfb7499fec06b4e93aa427c115ab61e5cc7197e42a603a64736f6c634300081b0033",
    "linkReferences": {},
    "deployedLinkReferences": {}
}