{
    "_format": "hh-sol-artifact-1",
    "contractName": "MarketPlace",
    "sourceName": "contracts/MarketPlace.sol",
    "abi": [
        {
            "inputs": [
                {
                    "internalType": "uint256",
                    "name": "_feePercent",
                    "type": "uint256"
                }
            ],
            "stateMutability": "nonpayable",
            "type": "constructor"
        },
        {
            "anonymous": false,
            "inputs": [
                {
                    "indexed": false,
                    "internalType": "uint256",
                    "name": "itemId",
                    "type": "uint256"
                },
                {
                    "indexed": true,
                    "internalType": "address",
                    "name": "nft",
                    "type": "address"
                },
                {
                    "indexed": false,
                    "internalType": "uint256",
                    "name": "tokenId",
                    "type": "uint256"
                },
                {
                    "indexed": false,
                    "internalType": "uint256",
                    "name": "price",
                    "type": "uint256"
                },
                {
                    "indexed": true,
                    "internalType": "address",
                    "name": "seller",
                    "type": "address"
                },
                {
                    "indexed": true,
                    "internalType": "address",
                    "name": "buyer",
                    "type": "address"
                }
            ],
            "name": "Bought",
            "type": "event"
        },
        {
            "anonymous": false,
            "inputs": [
                {
                    "indexed": false,
                    "internalType": "uint256",
                    "name": "itemId",
                    "type": "uint256"
                },
                {
                    "indexed": true,
                    "internalType": "address",
                    "name": "nft",
                    "type": "address"
                },
                {
                    "indexed": false,
                    "internalType": "uint256",
                    "name": "tokenId",
                    "type": "uint256"
                },
                {
                    "indexed": false,
                    "internalType": "uint256",
                    "name": "price",
                    "type": "uint256"
                },
                {
                    "indexed": true,
                    "internalType": "address",
                    "name": "seller",
                    "type": "address"
                }
            ],
            "name": "Offered",
            "type": "event"
        },
        {
            "inputs": [],
            "name": "feeAccount",
            "outputs": [
                {
                    "internalType": "address payable",
                    "name": "",
                    "type": "address"
                }
            ],
            "stateMutability": "view",
            "type": "function"
        },
        {
            "inputs": [],
            "name": "feePercent",
            "outputs": [
                {
                    "internalType": "uint256",
                    "name": "",
                    "type": "uint256"
                }
            ],
            "stateMutability": "view",
            "type": "function"
        },
        {
            "inputs": [
                {
                    "internalType": "uint256",
                    "name": "_itemId",
                    "type": "uint256"
                }
            ],
            "name": "getTotalPrice",
            "outputs": [
                {
                    "internalType": "uint256",
                    "name": "",
                    "type": "uint256"
                }
            ],
            "stateMutability": "view",
            "type": "function"
        },
        {
            "inputs": [],
            "name": "itemCount",
            "outputs": [
                {
                    "internalType": "uint256",
                    "name": "",
                    "type": "uint256"
                }
            ],
            "stateMutability": "view",
            "type": "function"
        },
        {
            "inputs": [
                {
                    "internalType": "uint256",
                    "name": "",
                    "type": "uint256"
                }
            ],
            "name": "items",
            "outputs": [
                {
                    "internalType": "uint256",
                    "name": "itemId",
                    "type": "uint256"
                },
                {
                    "internalType": "contract IERC721",
                    "name": "nft",
                    "type": "address"
                },
                {
                    "internalType": "uint256",
                    "name": "tokenId",
                    "type": "uint256"
                },
                {
                    "internalType": "uint256",
                    "name": "price",
                    "type": "uint256"
                },
                {
                    "internalType": "address payable",
                    "name": "seller",
                    "type": "address"
                },
                {
                    "internalType": "bool",
                    "name": "sold",
                    "type": "bool"
                }
            ],
            "stateMutability": "view",
            "type": "function"
        },
        {
            "inputs": [
                {
                    "internalType": "contract IERC721",
                    "name": "_nft",
                    "type": "address"
                },
                {
                    "internalType": "uint256",
                    "name": "_tokenId",
                    "type": "uint256"
                },
                {
                    "internalType": "uint256",
                    "name": "_price",
                    "type": "uint256"
                }
            ],
            "name": "makeItem",
            "outputs": [],
            "stateMutability": "nonpayable",
            "type": "function"
        },
        {
            "inputs": [
                {
                    "internalType": "uint256",
                    "name": "_itemId",
                    "type": "uint256"
                }
            ],
            "name": "purchaseItem",
            "outputs": [],
            "stateMutability": "payable",
            "type": "function"
        }
    ],
    "bytecode": "0x60c060405234801561001057600080fd5b5060405161085f38038061085f83398101604081905261002f9161003b565b3360805260a052610054565b60006020828403121561004d57600080fd5b5051919050565b60805160a0516107da6100856000396000818160fc0152610218015260008181608701526103b301526107da6000f3fe6080604052600436106100705760003560e01c8063bfb231d21161004e578063bfb231d21461011e578063ca7dd375146101ba578063d38ea5bf146101da578063fa00afc7146101ef57600080fd5b806365e17c9d146100755780636bfb0d01146100c65780637fd6f15c146100ea575b600080fd5b34801561008157600080fd5b506100a97f000000000000000000000000000000000000000000000000000000000000000081565b6040516001600160a01b0390911681526020015b60405180910390f35b3480156100d257600080fd5b506100dc60005481565b6040519081526020016100bd565b3480156100f657600080fd5b506100dc7f000000000000000000000000000000000000000000000000000000000000000081565b34801561012a57600080fd5b5061017e6101393660046106bc565b6001602081905260009182526040909120805491810154600282015460038301546004909301546001600160a01b03928316939192811690600160a01b900460ff1686565b604080519687526001600160a01b03958616602088015286019390935260608501919091529091166080830152151560a082015260c0016100bd565b3480156101c657600080fd5b506100dc6101d53660046106bc565b61020f565b6101ed6101e83660046106bc565b610269565b005b3480156101fb57600080fd5b506101ed61020a3660046106d5565b610504565b6000606461023d7f00000000000000000000000000000000000000000000000000000000000000008261072c565b600084815260016020526040902060030154610259919061073f565b6102639190610756565b92915050565b60006102748261020f565b6000838152600160205260409020909150821580159061029657506000548311155b6102dd5760405162461bcd60e51b8152602060048201526013602482015272125d195b48191bd95cc81b9bdd08195e1a5cdd606a1b60448201526064015b60405180910390fd5b813410156103205760405162461bcd60e51b815260206004820152601060248201526f2737ba1032b737bab3b41032ba3432b960811b60448201526064016102d4565b6004810154600160a01b900460ff16156103705760405162461bcd60e51b8152602060048201526011602482015270125d195b48185b1c9958591e481cdbdb19607a1b60448201526064016102d4565b600481015460038201546040516001600160a01b039092169181156108fc0291906000818181858888f193505050501580156103b0573d6000803e3d6000fd5b507f00000000000000000000000000000000000000000000000000000000000000006001600160a01b03166108fc8260030154846103ee9190610778565b6040518115909202916000818181858888f19350505050158015610416573d6000803e3d6000fd5b506004818101805460ff60a01b1916600160a01b179055600182015460028301546040516323b872dd60e01b8152309381019390935233602484015260448301526001600160a01b0316906323b872dd90606401600060405180830381600087803b15801561048457600080fd5b505af1158015610498573d6000803e3d6000fd5b50505050600481015460018201546002830154600384015460408051888152602081019390935282015233926001600160a01b039081169216907f8b4c9c8a607d67b321582dd8461041b1dc2ceeca70c8b7f37f8e02095cf2e76d9060600160405180910390a4505050565b600081116105545760405162461bcd60e51b815260206004820152601f60248201527f5072696365206d7573742062652067726561746572207468616e207a65726f0060448201526064016102d4565b6000805490806105638361078b565b90915550506040516323b872dd60e01b8152336004820152306024820152604481018390526001600160a01b038416906323b872dd90606401600060405180830381600087803b1580156105b657600080fd5b505af11580156105ca573d6000803e3d6000fd5b50506040805160c081018252600080548083526001600160a01b0389811660208086018281528688018c815260608089018d81523360808b0181815260a08c018b8152998b5260018088528d8c209c518d559551958c018054968a166001600160a01b031990971696909617909555925160028b01555160038a015591516004909801805496511515600160a01b026001600160a81b03199097169890951697909717949094179092559254855190815290810189905293840187905291945092507f655a0cf9c8db81512be9a76dc1c5ae5380b8816ce6ad659cd61b715e2999d59a910160405180910390a3505050565b6000602082840312156106ce57600080fd5b5035919050565b6000806000606084860312156106ea57600080fd5b83356001600160a01b038116811461070157600080fd5b95602085013595506040909401359392505050565b634e487b7160e01b600052601160045260246000fd5b8082018082111561026357610263610716565b808202811582820484141761026357610263610716565b60008261077357634e487b7160e01b600052601260045260246000fd5b500490565b8181038181111561026357610263610716565b60006001820161079d5761079d610716565b506001019056fea264697066735822122001c9137ed169f21edbd0e194e043dea456510dd36bf58a1d926e2c4c93aafa5664736f6c634300081b0033",
    "linkReferences": {},
    "deployedLinkReferences": {}
}