{
  "_format": "hh-sol-artifact-1",
  "contractName": "MNFT",
  "sourceName": "contracts/contract.sol",
  "abi": [
    {
      "inputs": [],
      "stateMutability": "nonpayable",
      "type": "constructor"
    },
    {
      "inputs": [
        {
          "internalType": "address",
          "name": "sender",
          "type": "address"
        },
        {
          "internalType": "uint256",
          "name": "tokenId",
          "type": "uint256"
        },
        {
          "internalType": "address",
          "name": "owner",
          "type": "address"
        }
      ],
      "name": "ERC721IncorrectOwner",
      "type": "error"
    },
    {
      "inputs": [
        {
          "internalType": "address",
          "name": "operator",
          "type": "address"
        },
        {
          "internalType": "uint256",
          "name": "tokenId",
          "type": "uint256"
        }
      ],
      "name": "ERC721InsufficientApproval",
      "type": "error"
    },
    {
      "inputs": [
        {
          "internalType": "address",
          "name": "approver",
          "type": "address"
        }
      ],
      "name": "ERC721InvalidApprover",
      "type": "error"
    },
    {
      "inputs": [
        {
          "internalType": "address",
          "name": "operator",
          "type": "address"
        }
      ],
      "name": "ERC721InvalidOperator",
      "type": "error"
    },
    {
      "inputs": [
        {
          "internalType": "address",
          "name": "owner",
          "type": "address"
        }
      ],
      "name": "ERC721InvalidOwner",
      "type": "error"
    },
    {
      "inputs": [
        {
          "internalType": "address",
          "name": "receiver",
          "type": "address"
        }
      ],
      "name": "ERC721InvalidReceiver",
      "type": "error"
    },
    {
      "inputs": [
        {
          "internalType": "address",
          "name": "sender",
          "type": "address"
        }
      ],
      "name": "ERC721InvalidSender",
      "type": "error"
    },
    {
      "inputs": [
        {
          "internalType": "uint256",
          "name": "tokenId",
          "type": "uint256"
        }
      ],
      "name": "ERC721NonexistentToken",
      "type": "error"
    },
    {
      "anonymous": false,
      "inputs": [
        {
          "indexed": true,
          "internalType": "address",
          "name": "owner",
          "type": "address"
        },
        {
          "indexed": true,
          "internalType": "address",
          "name": "approved",
          "type": "address"
        },
        {
          "indexed": true,
          "internalType": "uint256",
          "name": "tokenId",
          "type": "uint256"
        }
      ],
      "name": "Approval",
      "type": "event"
    },
    {
      "anonymous": false,
      "inputs": [
        {
          "indexed": true,
          "internalType": "address",
          "name": "owner",
          "type": "address"
        },
        {
          "indexed": true,
          "internalType": "address",
          "name": "operator",
          "type": "address"
        },
        {
          "indexed": false,
          "internalType": "bool",
          "name": "approved",
          "type": "bool"
        }
      ],
      "name": "ApprovalForAll",
      "type": "event"
    },
    {
      "anonymous": false,
      "inputs": [
        {
          "indexed": false,
          "internalType": "uint256",
          "name": "_fromTokenId",
          "type": "uint256"
        },
        {
          "indexed": false,
          "internalType": "uint256",
          "name": "_toTokenId",
          "type": "uint256"
        }
      ],
      "name": "BatchMetadataUpdate",
      "type": "event"
    },
    {
      "anonymous": false,
      "inputs": [
        {
          "indexed": false,
          "internalType": "uint256",
          "name": "_tokenId",
          "type": "uint256"
        }
      ],
      "name": "MetadataUpdate",
      "type": "event"
    },
    {
      "anonymous": false,
      "inputs": [
        {
          "indexed": false,
          "internalType": "uint256",
          "name": "tokenId",
          "type": "uint256"
        },
        {
          "indexed": false,
          "internalType": "uint256",
          "name": "price",
          "type": "uint256"
        }
      ],
      "name": "NFTListed",
      "type": "event"
    },
    {
      "anonymous": false,
      "inputs": [
        {
          "indexed": false,
          "internalType": "uint256",
          "name": "itemId",
          "type": "uint256"
        },
        {
          "indexed": false,
          "internalType": "uint256",
          "name": "tokenId",
          "type": "uint256"
        },
        {
          "indexed": false,
          "internalType": "uint256",
          "name": "price",
          "type": "uint256"
        },
        {
          "indexed": true,
          "internalType": "address",
          "name": "seller",
          "type": "address"
        }
      ],
      "name": "Offered",
      "type": "event"
    },
    {
      "anonymous": false,
      "inputs": [
        {
          "indexed": false,
          "internalType": "uint256",
          "name": "itemId",
          "type": "uint256"
        },
        {
          "indexed": false,
          "internalType": "uint256",
          "name": "tokenId",
          "type": "uint256"
        },
        {
          "indexed": false,
          "internalType": "uint256",
          "name": "price",
          "type": "uint256"
        },
        {
          "indexed": true,
          "internalType": "address",
          "name": "buyer",
          "type": "address"
        }
      ],
      "name": "Purchased",
      "type": "event"
    },
    {
      "anonymous": false,
      "inputs": [
        {
          "indexed": true,
          "internalType": "address",
          "name": "from",
          "type": "address"
        },
        {
          "indexed": true,
          "internalType": "address",
          "name": "to",
          "type": "address"
        },
        {
          "indexed": true,
          "internalType": "uint256",
          "name": "tokenId",
          "type": "uint256"
        }
      ],
      "name": "Transfer",
      "type": "event"
    },
    {
      "inputs": [
        {
          "internalType": "address",
          "name": "to",
          "type": "address"
        },
        {
          "internalType": "uint256",
          "name": "tokenId",
          "type": "uint256"
        }
      ],
      "name": "approve",
      "outputs": [],
      "stateMutability": "nonpayable",
      "type": "function"
    },
    {
      "inputs": [
        {
          "internalType": "address",
          "name": "owner",
          "type": "address"
        }
      ],
      "name": "balanceOf",
      "outputs": [
        {
          "internalType": "uint256",
          "name": "",
          "type": "uint256"
        }
      ],
      "stateMutability": "view",
      "type": "function"
    },
    {
      "inputs": [
        {
          "internalType": "uint256",
          "name": "tokenId",
          "type": "uint256"
        }
      ],
      "name": "getApproved",
      "outputs": [
        {
          "internalType": "address",
          "name": "",
          "type": "address"
        }
      ],
      "stateMutability": "view",
      "type": "function"
    },
    {
      "inputs": [
        {
          "internalType": "uint256",
          "name": "_itemId",
          "type": "uint256"
        }
      ],
      "name": "getTotalPrice",
      "outputs": [
        {
          "internalType": "uint256",
          "name": "",
          "type": "uint256"
        }
      ],
      "stateMutability": "view",
      "type": "function"
    },
    {
      "inputs": [
        {
          "internalType": "address",
          "name": "owner",
          "type": "address"
        },
        {
          "internalType": "address",
          "name": "operator",
          "type": "address"
        }
      ],
      "name": "isApprovedForAll",
      "outputs": [
        {
          "internalType": "bool",
          "name": "",
          "type": "bool"
        }
      ],
      "stateMutability": "view",
      "type": "function"
    },
    {
      "inputs": [],
      "name": "itemCount",
      "outputs": [
        {
          "internalType": "uint256",
          "name": "",
          "type": "uint256"
        }
      ],
      "stateMutability": "view",
      "type": "function"
    },
    {
      "inputs": [
        {
          "internalType": "uint256",
          "name": "",
          "type": "uint256"
        }
      ],
      "name": "items",
      "outputs": [
        {
          "internalType": "uint256",
          "name": "itemId",
          "type": "uint256"
        },
        {
          "internalType": "uint256",
          "name": "tokenId",
          "type": "uint256"
        },
        {
          "internalType": "uint256",
          "name": "price",
          "type": "uint256"
        },
        {
          "internalType": "address payable",
          "name": "seller",
          "type": "address"
        },
        {
          "internalType": "bool",
          "name": "sold",
          "type": "bool"
        }
      ],
      "stateMutability": "view",
      "type": "function"
    },
    {
      "inputs": [
        {
          "internalType": "uint256",
          "name": "tokenId",
          "type": "uint256"
        },
        {
          "internalType": "uint256",
          "name": "price",
          "type": "uint256"
        }
      ],
      "name": "listNFT",
      "outputs": [],
      "stateMutability": "nonpayable",
      "type": "function"
    },
    {
      "inputs": [
        {
          "internalType": "uint256",
          "name": "",
          "type": "uint256"
        }
      ],
      "name": "listedItems",
      "outputs": [
        {
          "internalType": "uint256",
          "name": "",
          "type": "uint256"
        }
      ],
      "stateMutability": "view",
      "type": "function"
    },
    {
      "inputs": [
        {
          "internalType": "string",
          "name": "_tokenURI",
          "type": "string"
        },
        {
          "internalType": "uint256",
          "name": "_price",
          "type": "uint256"
        }
      ],
      "name": "mint",
      "outputs": [
        {
          "internalType": "uint256",
          "name": "",
          "type": "uint256"
        }
      ],
      "stateMutability": "nonpayable",
      "type": "function"
    },
    {
      "inputs": [],
      "name": "name",
      "outputs": [
        {
          "internalType": "string",
          "name": "",
          "type": "string"
        }
      ],
      "stateMutability": "view",
      "type": "function"
    },
    {
      "inputs": [
        {
          "internalType": "uint256",
          "name": "tokenId",
          "type": "uint256"
        }
      ],
      "name": "ownerOf",
      "outputs": [
        {
          "internalType": "address",
          "name": "",
          "type": "address"
        }
      ],
      "stateMutability": "view",
      "type": "function"
    },
    {
      "inputs": [
        {
          "internalType": "uint256",
          "name": "_itemId",
          "type": "uint256"
        }
      ],
      "name": "purchaseItem",
      "outputs": [],
      "stateMutability": "payable",
      "type": "function"
    },
    {
      "inputs": [
        {
          "internalType": "address",
          "name": "from",
          "type": "address"
        },
        {
          "internalType": "address",
          "name": "to",
          "type": "address"
        },
        {
          "internalType": "uint256",
          "name": "tokenId",
          "type": "uint256"
        }
      ],
      "name": "safeTransferFrom",
      "outputs": [],
      "stateMutability": "nonpayable",
      "type": "function"
    },
    {
      "inputs": [
        {
          "internalType": "address",
          "name": "from",
          "type": "address"
        },
        {
          "internalType": "address",
          "name": "to",
          "type": "address"
        },
        {
          "internalType": "uint256",
          "name": "tokenId",
          "type": "uint256"
        },
        {
          "internalType": "bytes",
          "name": "data",
          "type": "bytes"
        }
      ],
      "name": "safeTransferFrom",
      "outputs": [],
      "stateMutability": "nonpayable",
      "type": "function"
    },
    {
      "inputs": [
        {
          "internalType": "address",
          "name": "operator",
          "type": "address"
        },
        {
          "internalType": "bool",
          "name": "approved",
          "type": "bool"
        }
      ],
      "name": "setApprovalForAll",
      "outputs": [],
      "stateMutability": "nonpayable",
      "type": "function"
    },
    {
      "inputs": [
        {
          "internalType": "bytes4",
          "name": "interfaceId",
          "type": "bytes4"
        }
      ],
      "name": "supportsInterface",
      "outputs": [
        {
          "internalType": "bool",
          "name": "",
          "type": "bool"
        }
      ],
      "stateMutability": "view",
      "type": "function"
    },
    {
      "inputs": [],
      "name": "symbol",
      "outputs": [
        {
          "internalType": "string",
          "name": "",
          "type": "string"
        }
      ],
      "stateMutability": "view",
      "type": "function"
    },
    {
      "inputs": [],
      "name": "tokenCount",
      "outputs": [
        {
          "internalType": "uint256",
          "name": "",
          "type": "uint256"
        }
      ],
      "stateMutability": "view",
      "type": "function"
    },
    {
      "inputs": [
        {
          "internalType": "uint256",
          "name": "tokenId",
          "type": "uint256"
        }
      ],
      "name": "tokenURI",
      "outputs": [
        {
          "internalType": "string",
          "name": "",
          "type": "string"
        }
      ],
      "stateMutability": "view",
      "type": "function"
    },
    {
      "inputs": [
        {
          "internalType": "address",
          "name": "from",
          "type": "address"
        },
        {
          "internalType": "address",
          "name": "to",
          "type": "address"
        },
        {
          "internalType": "uint256",
          "name": "tokenId",
          "type": "uint256"
        }
      ],
      "name": "transferFrom",
      "outputs": [],
      "stateMutability": "nonpayable",
      "type": "function"
    }
  ],
  "bytecode": "0x60806040523480156200001157600080fd5b5060405180604001604052806005815260200164135e53999d60da1b815250604051806040016040528060048152602001631353919560e21b81525081600090816200005e91906200011b565b5060016200006d82826200011b565b505050620001e7565b634e487b7160e01b600052604160045260246000fd5b600181811c90821680620000a157607f821691505b602082108103620000c257634e487b7160e01b600052602260045260246000fd5b50919050565b601f8211156200011657600081815260208120601f850160051c81016020861015620000f15750805b601f850160051c820191505b818110156200011257828155600101620000fd565b5050505b505050565b81516001600160401b0381111562000137576200013762000076565b6200014f816200014884546200008c565b84620000c8565b602080601f8311600181146200018757600084156200016e5750858301515b600019600386901b1c1916600185901b17855562000112565b600085815260208120601f198616915b82811015620001b85788860151825594840194600190910190840162000197565b5085821015620001d75787850151600019600388901b60f8161c191681555b5050505050600190811b01905550565b61195f80620001f76000396000f3fe60806040526004361061012a5760003560e01c806394383f14116100ab578063bfb231d21161006f578063bfb231d21461032f578063c87b56dd146103b9578063ca7dd375146103d9578063d2347061146103f9578063d38ea5bf14610426578063e985e9c51461043957600080fd5b806394383f14146102a457806395d89b41146102c45780639f181b5e146102d9578063a22cb465146102ef578063b88d4fde1461030f57600080fd5b806323b872dd116100f257806323b872dd1461020e57806342842e0e1461022e5780636352211e1461024e5780636bfb0d011461026e57806370a082311461028457600080fd5b806301ffc9a71461012f578063056b01ce1461016457806306fdde0314610192578063081812fc146101b4578063095ea7b3146101ec575b600080fd5b34801561013b57600080fd5b5061014f61014a3660046113c8565b610459565b60405190151581526020015b60405180910390f35b34801561017057600080fd5b5061018461017f366004611471565b610484565b60405190815260200161015b565b34801561019e57600080fd5b506101a76105a5565b60405161015b919061151a565b3480156101c057600080fd5b506101d46101cf36600461152d565b610637565b6040516001600160a01b03909116815260200161015b565b3480156101f857600080fd5b5061020c610207366004611562565b610660565b005b34801561021a57600080fd5b5061020c61022936600461158c565b61066f565b34801561023a57600080fd5b5061020c61024936600461158c565b6106ff565b34801561025a57600080fd5b506101d461026936600461152d565b61071f565b34801561027a57600080fd5b5061018460085481565b34801561029057600080fd5b5061018461029f3660046115c8565b61072a565b3480156102b057600080fd5b5061020c6102bf3660046115e3565b610772565b3480156102d057600080fd5b506101a7610872565b3480156102e557600080fd5b5061018460075481565b3480156102fb57600080fd5b5061020c61030a366004611605565b610881565b34801561031b57600080fd5b5061020c61032a366004611641565b61088c565b34801561033b57600080fd5b5061038661034a36600461152d565b6009602052600090815260409020805460018201546002830154600390930154919290916001600160a01b03811690600160a01b900460ff1685565b604080519586526020860194909452928401919091526001600160a01b031660608301521515608082015260a00161015b565b3480156103c557600080fd5b506101a76103d436600461152d565b6108a3565b3480156103e557600080fd5b506101846103f436600461152d565b6109b4565b34801561040557600080fd5b5061018461041436600461152d565b600a6020526000908152604090205481565b61020c61043436600461152d565b6109de565b34801561044557600080fd5b5061014f6104543660046116bd565b610b9e565b60006001600160e01b03198216632483248360e11b148061047e575061047e82610bcc565b92915050565b600780546000918261049583611706565b9091555050600880549060006104aa83611706565b91905055506104bb33600754610c1c565b6104c760075484610c36565b6040805160a08101825260088054808352600780546020808601918252858701898152336060808901828152600060808b01818152988152600986528b902099518a55945160018a01559151600289015592516003909701805495511515600160a01b026001600160a81b03199096166001600160a01b03909816979097179490941790955592549054855191825293810193909352928201859052917fd846d2cfaaa23a2723be747ef18b5d16a1484d901d581da4843cc27638c862ad910160405180910390a261059b60075483610772565b5060075492915050565b6060600080546105b49061171f565b80601f01602080910402602001604051908101604052809291908181526020018280546105e09061171f565b801561062d5780601f106106025761010080835404028352916020019161062d565b820191906000526020600020905b81548152906001019060200180831161061057829003601f168201915b5050505050905090565b600061064282610c7f565b506000828152600460205260409020546001600160a01b031661047e565b61066b828233610cb8565b5050565b6001600160a01b03821661069e57604051633250574960e11b8152600060048201526024015b60405180910390fd5b60006106ab838333610cc5565b9050836001600160a01b0316816001600160a01b0316146106f9576040516364283d7b60e01b81526001600160a01b0380861660048301526024820184905282166044820152606401610695565b50505050565b61071a8383836040518060200160405280600081525061088c565b505050565b600061047e82610c7f565b60006001600160a01b038216610756576040516322718ad960e21b815260006004820152602401610695565b506001600160a01b031660009081526003602052604090205490565b3361077c8361071f565b6001600160a01b0316146107d25760405162461bcd60e51b815260206004820152601760248201527f596f7520646f206e6f74206f776e2074686973204e46540000000000000000006044820152606401610695565b600081116108225760405162461bcd60e51b815260206004820152601c60248201527f5072696365206d7573742062652067726561746572207468616e2030000000006044820152606401610695565b6000828152600a602090815260409182902083905581518481529081018390527fa6cd73580a273eec6c1026108f6b63479fbaef5356dde4ff43e4b38dd187485f91015b60405180910390a15050565b6060600180546105b49061171f565b61066b338383610dbe565b61089784848461066f565b6106f984848484610e5d565b60606108ae82610c7f565b50600082815260066020526040812080546108c89061171f565b80601f01602080910402602001604051908101604052809291908181526020018280546108f49061171f565b80156109415780601f1061091657610100808354040283529160200191610941565b820191906000526020600020905b81548152906001019060200180831161092457829003601f168201915b50505050509050600061095f60408051602081019091526000815290565b90508051600003610971575092915050565b8151156109a357808260405160200161098b929190611759565b60405160208183030381529060405292505050919050565b6109ac84610f86565b949350505050565b6000818152600960205260408120600201546064906109d4906067611788565b61047e919061179f565b60006109e9826109b4565b60008381526009602052604090209091508215801590610a0b57506008548311155b610a4c5760405162461bcd60e51b8152602060048201526012602482015271125d195b48191bd95cdb89dd08195e1a5cdd60721b6044820152606401610695565b81341015610aa85760405162461bcd60e51b8152602060048201526024808201527f4e6f7420656e6f75676820657468657220746f20636f766572206974656d20706044820152637269636560e01b6064820152608401610695565b60038101546001600160a01b03163303610af85760405162461bcd60e51b815260206004820152601160248201527073656c6c65722063616e6e6f742062757960781b6044820152606401610695565b600381015460028201546040516001600160a01b039092169181156108fc0291906000818181858888f19350505050158015610b38573d6000803e3d6000fd5b5060038101805460ff60a01b1916600160a01b1790556001810154600282015460408051868152602081019390935282015233907fa923744d7e04ff4b7968f28603d15274656557c57da1606caa6feb90bd50a37b9060600160405180910390a2505050565b6001600160a01b03918216600090815260056020908152604080832093909416825291909152205460ff1690565b60006001600160e01b031982166380ac58cd60e01b1480610bfd57506001600160e01b03198216635b5e139f60e01b145b8061047e57506301ffc9a760e01b6001600160e01b031983161461047e565b61066b828260405180602001604052806000815250610ffb565b6000828152600660205260409020610c4e828261180f565b506040518281527ff8e1a15aba9398e019f0b49df1a4fde98ee17ae345cb5f6b5e2c27f5033e8ce790602001610866565b6000818152600260205260408120546001600160a01b03168061047e57604051637e27328960e01b815260048101849052602401610695565b61071a8383836001611012565b6000828152600260205260408120546001600160a01b0390811690831615610cf257610cf2818486611118565b6001600160a01b03811615610d3057610d0f600085600080611012565b6001600160a01b038116600090815260036020526040902080546000190190555b6001600160a01b03851615610d5f576001600160a01b0385166000908152600360205260409020805460010190555b60008481526002602052604080822080546001600160a01b0319166001600160a01b0389811691821790925591518793918516917fddf252ad1be2c89b69c2b068fc378daa952ba7f163c4a11628f55a4df523b3ef91a4949350505050565b6001600160a01b038216610df057604051630b61174360e31b81526001600160a01b0383166004820152602401610695565b6001600160a01b03838116600081815260056020908152604080832094871680845294825291829020805460ff191686151590811790915591519182527f17307eab39ab6107e8899845ad3d59bd9653f200f220920489ca2b5937696c31910160405180910390a3505050565b6001600160a01b0383163b156106f957604051630a85bd0160e11b81526001600160a01b0384169063150b7a0290610e9f9033908890879087906004016118cf565b6020604051808303816000875af1925050508015610eda575060408051601f3d908101601f19168201909252610ed79181019061190c565b60015b610f43573d808015610f08576040519150601f19603f3d011682016040523d82523d6000602084013e610f0d565b606091505b508051600003610f3b57604051633250574960e11b81526001600160a01b0385166004820152602401610695565b805181602001fd5b6001600160e01b03198116630a85bd0160e11b14610f7f57604051633250574960e11b81526001600160a01b0385166004820152602401610695565b5050505050565b6060610f9182610c7f565b506000610fa960408051602081019091526000815290565b90506000815111610fc95760405180602001604052806000815250610ff4565b80610fd38461117c565b604051602001610fe4929190611759565b6040516020818303038152906040525b9392505050565b611005838361120f565b61071a6000848484610e5d565b808061102657506001600160a01b03821615155b156110e857600061103684610c7f565b90506001600160a01b038316158015906110625750826001600160a01b0316816001600160a01b031614155b801561107557506110738184610b9e565b155b1561109e5760405163a9fbf51f60e01b81526001600160a01b0384166004820152602401610695565b81156110e65783856001600160a01b0316826001600160a01b03167f8c5be1e5ebec7d5bd14f71427d1e84f3dd0314c0f7b2291e5b200ac8c7c3b92560405160405180910390a45b505b5050600090815260046020526040902080546001600160a01b0319166001600160a01b0392909216919091179055565b611123838383611274565b61071a576001600160a01b03831661115157604051637e27328960e01b815260048101829052602401610695565b60405163177e802f60e01b81526001600160a01b038316600482015260248101829052604401610695565b60606000611189836112d7565b600101905060008167ffffffffffffffff8111156111a9576111a96113e5565b6040519080825280601f01601f1916602001820160405280156111d3576020820181803683370190505b5090508181016020015b600019016f181899199a1a9b1b9c1cb0b131b232b360811b600a86061a8153600a85049450846111dd57509392505050565b6001600160a01b03821661123957604051633250574960e11b815260006004820152602401610695565b600061124783836000610cc5565b90506001600160a01b0381161561071a576040516339e3563760e11b815260006004820152602401610695565b60006001600160a01b038316158015906109ac5750826001600160a01b0316846001600160a01b031614806112ae57506112ae8484610b9e565b806109ac5750506000908152600460205260409020546001600160a01b03908116911614919050565b60008072184f03e93ff9f4daa797ed6e38ed64bf6a1f0160401b83106113165772184f03e93ff9f4daa797ed6e38ed64bf6a1f0160401b830492506040015b6d04ee2d6d415b85acef81000000008310611342576d04ee2d6d415b85acef8100000000830492506020015b662386f26fc10000831061136057662386f26fc10000830492506010015b6305f5e1008310611378576305f5e100830492506008015b612710831061138c57612710830492506004015b6064831061139e576064830492506002015b600a831061047e5760010192915050565b6001600160e01b0319811681146113c557600080fd5b50565b6000602082840312156113da57600080fd5b8135610ff4816113af565b634e487b7160e01b600052604160045260246000fd5b600067ffffffffffffffff80841115611416576114166113e5565b604051601f8501601f19908116603f0116810190828211818310171561143e5761143e6113e5565b8160405280935085815286868601111561145757600080fd5b858560208301376000602087830101525050509392505050565b6000806040838503121561148457600080fd5b823567ffffffffffffffff81111561149b57600080fd5b8301601f810185136114ac57600080fd5b6114bb858235602084016113fb565b95602094909401359450505050565b60005b838110156114e55781810151838201526020016114cd565b50506000910152565b600081518084526115068160208601602086016114ca565b601f01601f19169290920160200192915050565b602081526000610ff460208301846114ee565b60006020828403121561153f57600080fd5b5035919050565b80356001600160a01b038116811461155d57600080fd5b919050565b6000806040838503121561157557600080fd5b61157e83611546565b946020939093013593505050565b6000806000606084860312156115a157600080fd5b6115aa84611546565b92506115b860208501611546565b9150604084013590509250925092565b6000602082840312156115da57600080fd5b610ff482611546565b600080604083850312156115f657600080fd5b50508035926020909101359150565b6000806040838503121561161857600080fd5b61162183611546565b91506020830135801515811461163657600080fd5b809150509250929050565b6000806000806080858703121561165757600080fd5b61166085611546565b935061166e60208601611546565b925060408501359150606085013567ffffffffffffffff81111561169157600080fd5b8501601f810187136116a257600080fd5b6116b1878235602084016113fb565b91505092959194509250565b600080604083850312156116d057600080fd5b6116d983611546565b91506116e760208401611546565b90509250929050565b634e487b7160e01b600052601160045260246000fd5b600060018201611718576117186116f0565b5060010190565b600181811c9082168061173357607f821691505b60208210810361175357634e487b7160e01b600052602260045260246000fd5b50919050565b6000835161176b8184602088016114ca565b83519083019061177f8183602088016114ca565b01949350505050565b808202811582820484141761047e5761047e6116f0565b6000826117bc57634e487b7160e01b600052601260045260246000fd5b500490565b601f82111561071a57600081815260208120601f850160051c810160208610156117e85750805b601f850160051c820191505b81811015611807578281556001016117f4565b505050505050565b815167ffffffffffffffff811115611829576118296113e5565b61183d81611837845461171f565b846117c1565b602080601f831160018114611872576000841561185a5750858301515b600019600386901b1c1916600185901b178555611807565b600085815260208120601f198616915b828110156118a157888601518255948401946001909101908401611882565b50858210156118bf5787850151600019600388901b60f8161c191681555b5050505050600190811b01905550565b6001600160a01b0385811682528416602082015260408101839052608060608201819052600090611902908301846114ee565b9695505050505050565b60006020828403121561191e57600080fd5b8151610ff4816113af56fea2646970667358221220c9ca435c0c95830d939d35324fd57c95884c4837c47130dfc01012ba15575f8a64736f6c63430008140033",
  "linkReferences": {},
  "deployedLinkReferences": {}
}