{
  "_format": "hh-sol-artifact-1",
  "contractName": "MNFT",
  "sourceName": "contracts/contract.sol",
  "abi": [
    {
      "inputs": [],
      "stateMutability": "nonpayable",
      "type": "constructor"
    },
    {
      "inputs": [
        {
          "internalType": "address",
          "name": "sender",
          "type": "address"
        },
        {
          "internalType": "uint256",
          "name": "tokenId",
          "type": "uint256"
        },
        {
          "internalType": "address",
          "name": "owner",
          "type": "address"
        }
      ],
      "name": "ERC721IncorrectOwner",
      "type": "error"
    },
    {
      "inputs": [
        {
          "internalType": "address",
          "name": "operator",
          "type": "address"
        },
        {
          "internalType": "uint256",
          "name": "tokenId",
          "type": "uint256"
        }
      ],
      "name": "ERC721InsufficientApproval",
      "type": "error"
    },
    {
      "inputs": [
        {
          "internalType": "address",
          "name": "approver",
          "type": "address"
        }
      ],
      "name": "ERC721InvalidApprover",
      "type": "error"
    },
    {
      "inputs": [
        {
          "internalType": "address",
          "name": "operator",
          "type": "address"
        }
      ],
      "name": "ERC721InvalidOperator",
      "type": "error"
    },
    {
      "inputs": [
        {
          "internalType": "address",
          "name": "owner",
          "type": "address"
        }
      ],
      "name": "ERC721InvalidOwner",
      "type": "error"
    },
    {
      "inputs": [
        {
          "internalType": "address",
          "name": "receiver",
          "type": "address"
        }
      ],
      "name": "ERC721InvalidReceiver",
      "type": "error"
    },
    {
      "inputs": [
        {
          "internalType": "address",
          "name": "sender",
          "type": "address"
        }
      ],
      "name": "ERC721InvalidSender",
      "type": "error"
    },
    {
      "inputs": [
        {
          "internalType": "uint256",
          "name": "tokenId",
          "type": "uint256"
        }
      ],
      "name": "ERC721NonexistentToken",
      "type": "error"
    },
    {
      "anonymous": false,
      "inputs": [
        {
          "indexed": true,
          "internalType": "address",
          "name": "owner",
          "type": "address"
        },
        {
          "indexed": true,
          "internalType": "address",
          "name": "approved",
          "type": "address"
        },
        {
          "indexed": true,
          "internalType": "uint256",
          "name": "tokenId",
          "type": "uint256"
        }
      ],
      "name": "Approval",
      "type": "event"
    },
    {
      "anonymous": false,
      "inputs": [
        {
          "indexed": true,
          "internalType": "address",
          "name": "owner",
          "type": "address"
        },
        {
          "indexed": true,
          "internalType": "address",
          "name": "operator",
          "type": "address"
        },
        {
          "indexed": false,
          "internalType": "bool",
          "name": "approved",
          "type": "bool"
        }
      ],
      "name": "ApprovalForAll",
      "type": "event"
    },
    {
      "anonymous": false,
      "inputs": [
        {
          "indexed": false,
          "internalType": "uint256",
          "name": "_fromTokenId",
          "type": "uint256"
        },
        {
          "indexed": false,
          "internalType": "uint256",
          "name": "_toTokenId",
          "type": "uint256"
        }
      ],
      "name": "BatchMetadataUpdate",
      "type": "event"
    },
    {
      "anonymous": false,
      "inputs": [
        {
          "indexed": false,
          "internalType": "uint256",
          "name": "_tokenId",
          "type": "uint256"
        }
      ],
      "name": "MetadataUpdate",
      "type": "event"
    },
    {
      "anonymous": false,
      "inputs": [
        {
          "indexed": false,
          "internalType": "uint256",
          "name": "tokenId",
          "type": "uint256"
        },
        {
          "indexed": false,
          "internalType": "uint256",
          "name": "price",
          "type": "uint256"
        }
      ],
      "name": "NFTListed",
      "type": "event"
    },
    {
      "anonymous": false,
      "inputs": [
        {
          "indexed": false,
          "internalType": "uint256",
          "name": "itemId",
          "type": "uint256"
        },
        {
          "indexed": false,
          "internalType": "uint256",
          "name": "tokenId",
          "type": "uint256"
        },
        {
          "indexed": false,
          "internalType": "uint256",
          "name": "price",
          "type": "uint256"
        },
        {
          "indexed": true,
          "internalType": "address",
          "name": "seller",
          "type": "address"
        }
      ],
      "name": "Offered",
      "type": "event"
    },
    {
      "anonymous": false,
      "inputs": [
        {
          "indexed": false,
          "internalType": "uint256",
          "name": "itemId",
          "type": "uint256"
        },
        {
          "indexed": false,
          "internalType": "uint256",
          "name": "tokenId",
          "type": "uint256"
        },
        {
          "indexed": false,
          "internalType": "uint256",
          "name": "price",
          "type": "uint256"
        },
        {
          "indexed": true,
          "internalType": "address",
          "name": "buyer",
          "type": "address"
        }
      ],
      "name": "Purchased",
      "type": "event"
    },
    {
      "anonymous": false,
      "inputs": [
        {
          "indexed": true,
          "internalType": "address",
          "name": "from",
          "type": "address"
        },
        {
          "indexed": true,
          "internalType": "address",
          "name": "to",
          "type": "address"
        },
        {
          "indexed": true,
          "internalType": "uint256",
          "name": "tokenId",
          "type": "uint256"
        }
      ],
      "name": "Transfer",
      "type": "event"
    },
    {
      "inputs": [
        {
          "internalType": "address",
          "name": "to",
          "type": "address"
        },
        {
          "internalType": "uint256",
          "name": "tokenId",
          "type": "uint256"
        }
      ],
      "name": "approve",
      "outputs": [],
      "stateMutability": "nonpayable",
      "type": "function"
    },
    {
      "inputs": [
        {
          "internalType": "address",
          "name": "owner",
          "type": "address"
        }
      ],
      "name": "balanceOf",
      "outputs": [
        {
          "internalType": "uint256",
          "name": "",
          "type": "uint256"
        }
      ],
      "stateMutability": "view",
      "type": "function"
    },
    {
      "inputs": [
        {
          "internalType": "uint256",
          "name": "tokenId",
          "type": "uint256"
        }
      ],
      "name": "getApproved",
      "outputs": [
        {
          "internalType": "address",
          "name": "",
          "type": "address"
        }
      ],
      "stateMutability": "view",
      "type": "function"
    },
    {
      "inputs": [
        {
          "internalType": "uint256",
          "name": "_itemId",
          "type": "uint256"
        }
      ],
      "name": "getTotalPrice",
      "outputs": [
        {
          "internalType": "uint256",
          "name": "",
          "type": "uint256"
        }
      ],
      "stateMutability": "view",
      "type": "function"
    },
    {
      "inputs": [
        {
          "internalType": "address",
          "name": "owner",
          "type": "address"
        },
        {
          "internalType": "address",
          "name": "operator",
          "type": "address"
        }
      ],
      "name": "isApprovedForAll",
      "outputs": [
        {
          "internalType": "bool",
          "name": "",
          "type": "bool"
        }
      ],
      "stateMutability": "view",
      "type": "function"
    },
    {
      "inputs": [],
      "name": "itemCount",
      "outputs": [
        {
          "internalType": "uint256",
          "name": "",
          "type": "uint256"
        }
      ],
      "stateMutability": "view",
      "type": "function"
    },
    {
      "inputs": [
        {
          "internalType": "uint256",
          "name": "",
          "type": "uint256"
        }
      ],
      "name": "items",
      "outputs": [
        {
          "internalType": "uint256",
          "name": "itemId",
          "type": "uint256"
        },
        {
          "internalType": "uint256",
          "name": "tokenId",
          "type": "uint256"
        },
        {
          "internalType": "uint256",
          "name": "price",
          "type": "uint256"
        },
        {
          "internalType": "address payable",
          "name": "seller",
          "type": "address"
        },
        {
          "internalType": "bool",
          "name": "sold",
          "type": "bool"
        }
      ],
      "stateMutability": "view",
      "type": "function"
    },
    {
      "inputs": [
        {
          "internalType": "uint256",
          "name": "tokenId",
          "type": "uint256"
        },
        {
          "internalType": "uint256",
          "name": "price",
          "type": "uint256"
        }
      ],
      "name": "listNFT",
      "outputs": [],
      "stateMutability": "nonpayable",
      "type": "function"
    },
    {
      "inputs": [
        {
          "internalType": "uint256",
          "name": "",
          "type": "uint256"
        }
      ],
      "name": "listedItems",
      "outputs": [
        {
          "internalType": "uint256",
          "name": "",
          "type": "uint256"
        }
      ],
      "stateMutability": "view",
      "type": "function"
    },
    {
      "inputs": [
        {
          "internalType": "string",
          "name": "_tokenURI",
          "type": "string"
        },
        {
          "internalType": "uint256",
          "name": "_price",
          "type": "uint256"
        }
      ],
      "name": "mint",
      "outputs": [
        {
          "internalType": "uint256",
          "name": "",
          "type": "uint256"
        }
      ],
      "stateMutability": "nonpayable",
      "type": "function"
    },
    {
      "inputs": [],
      "name": "name",
      "outputs": [
        {
          "internalType": "string",
          "name": "",
          "type": "string"
        }
      ],
      "stateMutability": "view",
      "type": "function"
    },
    {
      "inputs": [
        {
          "internalType": "uint256",
          "name": "tokenId",
          "type": "uint256"
        }
      ],
      "name": "ownerOf",
      "outputs": [
        {
          "internalType": "address",
          "name": "",
          "type": "address"
        }
      ],
      "stateMutability": "view",
      "type": "function"
    },
    {
      "inputs": [
        {
          "internalType": "uint256",
          "name": "_itemId",
          "type": "uint256"
        }
      ],
      "name": "purchaseItem",
      "outputs": [],
      "stateMutability": "payable",
      "type": "function"
    },
    {
      "inputs": [
        {
          "internalType": "address",
          "name": "from",
          "type": "address"
        },
        {
          "internalType": "address",
          "name": "to",
          "type": "address"
        },
        {
          "internalType": "uint256",
          "name": "tokenId",
          "type": "uint256"
        }
      ],
      "name": "safeTransferFrom",
      "outputs": [],
      "stateMutability": "nonpayable",
      "type": "function"
    },
    {
      "inputs": [
        {
          "internalType": "address",
          "name": "from",
          "type": "address"
        },
        {
          "internalType": "address",
          "name": "to",
          "type": "address"
        },
        {
          "internalType": "uint256",
          "name": "tokenId",
          "type": "uint256"
        },
        {
          "internalType": "bytes",
          "name": "data",
          "type": "bytes"
        }
      ],
      "name": "safeTransferFrom",
      "outputs": [],
      "stateMutability": "nonpayable",
      "type": "function"
    },
    {
      "inputs": [
        {
          "internalType": "address",
          "name": "operator",
          "type": "address"
        },
        {
          "internalType": "bool",
          "name": "approved",
          "type": "bool"
        }
      ],
      "name": "setApprovalForAll",
      "outputs": [],
      "stateMutability": "nonpayable",
      "type": "function"
    },
    {
      "inputs": [
        {
          "internalType": "bytes4",
          "name": "interfaceId",
          "type": "bytes4"
        }
      ],
      "name": "supportsInterface",
      "outputs": [
        {
          "internalType": "bool",
          "name": "",
          "type": "bool"
        }
      ],
      "stateMutability": "view",
      "type": "function"
    },
    {
      "inputs": [],
      "name": "symbol",
      "outputs": [
        {
          "internalType": "string",
          "name": "",
          "type": "string"
        }
      ],
      "stateMutability": "view",
      "type": "function"
    },
    {
      "inputs": [],
      "name": "tokenCount",
      "outputs": [
        {
          "internalType": "uint256",
          "name": "",
          "type": "uint256"
        }
      ],
      "stateMutability": "view",
      "type": "function"
    },
    {
      "inputs": [
        {
          "internalType": "uint256",
          "name": "tokenId",
          "type": "uint256"
        }
      ],
      "name": "tokenURI",
      "outputs": [
        {
          "internalType": "string",
          "name": "",
          "type": "string"
        }
      ],
      "stateMutability": "view",
      "type": "function"
    },
    {
      "inputs": [
        {
          "internalType": "address",
          "name": "from",
          "type": "address"
        },
        {
          "internalType": "address",
          "name": "to",
          "type": "address"
        },
        {
          "internalType": "uint256",
          "name": "tokenId",
          "type": "uint256"
        }
      ],
      "name": "transferFrom",
      "outputs": [],
      "stateMutability": "nonpayable",
      "type": "function"
    }
  ],
  "bytecode": "0x60806040523480156200001157600080fd5b5060405180604001604052806005815260200164135e53999d60da1b815250604051806040016040528060048152602001631353919560e21b81525081600090816200005e91906200011b565b5060016200006d82826200011b565b505050620001e7565b634e487b7160e01b600052604160045260246000fd5b600181811c90821680620000a157607f821691505b602082108103620000c257634e487b7160e01b600052602260045260246000fd5b50919050565b601f8211156200011657600081815260208120601f850160051c81016020861015620000f15750805b601f850160051c820191505b818110156200011257828155600101620000fd565b5050505b505050565b81516001600160401b0381111562000137576200013762000076565b6200014f816200014884546200008c565b84620000c8565b602080601f8311600181146200018757600084156200016e5750858301515b600019600386901b1c1916600185901b17855562000112565b600085815260208120601f198616915b82811015620001b85788860151825594840194600190910190840162000197565b5085821015620001d75787850151600019600388901b60f8161c191681555b5050505050600190811b01905550565b61190f80620001f76000396000f3fe60806040526004361061012a5760003560e01c806394383f14116100ab578063bfb231d21161006f578063bfb231d21461032f578063c87b56dd146103b9578063ca7dd375146103d9578063d2347061146103f9578063d38ea5bf14610426578063e985e9c51461043957600080fd5b806394383f14146102a457806395d89b41146102c45780639f181b5e146102d9578063a22cb465146102ef578063b88d4fde1461030f57600080fd5b806323b872dd116100f257806323b872dd1461020e57806342842e0e1461022e5780636352211e1461024e5780636bfb0d011461026e57806370a082311461028457600080fd5b806301ffc9a71461012f578063056b01ce1461016457806306fdde0314610192578063081812fc146101b4578063095ea7b3146101ec575b600080fd5b34801561013b57600080fd5b5061014f61014a366004611378565b610459565b60405190151581526020015b60405180910390f35b34801561017057600080fd5b5061018461017f366004611421565b610484565b60405190815260200161015b565b34801561019e57600080fd5b506101a76105a5565b60405161015b91906114ca565b3480156101c057600080fd5b506101d46101cf3660046114dd565b610637565b6040516001600160a01b03909116815260200161015b565b3480156101f857600080fd5b5061020c610207366004611512565b610660565b005b34801561021a57600080fd5b5061020c61022936600461153c565b61066f565b34801561023a57600080fd5b5061020c61024936600461153c565b6106ff565b34801561025a57600080fd5b506101d46102693660046114dd565b61071f565b34801561027a57600080fd5b5061018460085481565b34801561029057600080fd5b5061018461029f366004611578565b61072a565b3480156102b057600080fd5b5061020c6102bf366004611593565b610772565b3480156102d057600080fd5b506101a7610872565b3480156102e557600080fd5b5061018460075481565b3480156102fb57600080fd5b5061020c61030a3660046115b5565b610881565b34801561031b57600080fd5b5061020c61032a3660046115f1565b61088c565b34801561033b57600080fd5b5061038661034a3660046114dd565b6009602052600090815260409020805460018201546002830154600390930154919290916001600160a01b03811690600160a01b900460ff1685565b604080519586526020860194909452928401919091526001600160a01b031660608301521515608082015260a00161015b565b3480156103c557600080fd5b506101a76103d43660046114dd565b6108a3565b3480156103e557600080fd5b506101846103f43660046114dd565b6109b4565b34801561040557600080fd5b506101846104143660046114dd565b600a6020526000908152604090205481565b61020c6104343660046114dd565b6109de565b34801561044557600080fd5b5061014f61045436600461166d565b610b4e565b60006001600160e01b03198216632483248360e11b148061047e575061047e82610b7c565b92915050565b6007805460009182610495836116b6565b9091555050600880549060006104aa836116b6565b91905055506104bb33600754610bcc565b6104c760075484610be6565b6040805160a08101825260088054808352600780546020808601918252858701898152336060808901828152600060808b01818152988152600986528b902099518a55945160018a01559151600289015592516003909701805495511515600160a01b026001600160a81b03199096166001600160a01b03909816979097179490941790955592549054855191825293810193909352928201859052917fd846d2cfaaa23a2723be747ef18b5d16a1484d901d581da4843cc27638c862ad910160405180910390a261059b60075483610772565b5060075492915050565b6060600080546105b4906116cf565b80601f01602080910402602001604051908101604052809291908181526020018280546105e0906116cf565b801561062d5780601f106106025761010080835404028352916020019161062d565b820191906000526020600020905b81548152906001019060200180831161061057829003601f168201915b5050505050905090565b600061064282610c2f565b506000828152600460205260409020546001600160a01b031661047e565b61066b828233610c68565b5050565b6001600160a01b03821661069e57604051633250574960e11b8152600060048201526024015b60405180910390fd5b60006106ab838333610c75565b9050836001600160a01b0316816001600160a01b0316146106f9576040516364283d7b60e01b81526001600160a01b0380861660048301526024820184905282166044820152606401610695565b50505050565b61071a8383836040518060200160405280600081525061088c565b505050565b600061047e82610c2f565b60006001600160a01b038216610756576040516322718ad960e21b815260006004820152602401610695565b506001600160a01b031660009081526003602052604090205490565b3361077c8361071f565b6001600160a01b0316146107d25760405162461bcd60e51b815260206004820152601760248201527f596f7520646f206e6f74206f776e2074686973204e46540000000000000000006044820152606401610695565b600081116108225760405162461bcd60e51b815260206004820152601c60248201527f5072696365206d7573742062652067726561746572207468616e2030000000006044820152606401610695565b6000828152600a602090815260409182902083905581518481529081018390527fa6cd73580a273eec6c1026108f6b63479fbaef5356dde4ff43e4b38dd187485f91015b60405180910390a15050565b6060600180546105b4906116cf565b61066b338383610d6e565b61089784848461066f565b6106f984848484610e0d565b60606108ae82610c2f565b50600082815260066020526040812080546108c8906116cf565b80601f01602080910402602001604051908101604052809291908181526020018280546108f4906116cf565b80156109415780601f1061091657610100808354040283529160200191610941565b820191906000526020600020905b81548152906001019060200180831161092457829003601f168201915b50505050509050600061095f60408051602081019091526000815290565b90508051600003610971575092915050565b8151156109a357808260405160200161098b929190611709565b60405160208183030381529060405292505050919050565b6109ac84610f36565b949350505050565b6000818152600960205260408120600201546064906109d4906067611738565b61047e919061174f565b60006109e9826109b4565b60008381526009602052604090209091508215801590610a0b57506008548311155b610a4c5760405162461bcd60e51b8152602060048201526012602482015271125d195b48191bd95cdb89dd08195e1a5cdd60721b6044820152606401610695565b81341015610aa85760405162461bcd60e51b8152602060048201526024808201527f4e6f7420656e6f75676820657468657220746f20636f766572206974656d20706044820152637269636560e01b6064820152608401610695565b600381015460028201546040516001600160a01b039092169181156108fc0291906000818181858888f19350505050158015610ae8573d6000803e3d6000fd5b5060038101805460ff60a01b1916600160a01b1790556001810154600282015460408051868152602081019390935282015233907fa923744d7e04ff4b7968f28603d15274656557c57da1606caa6feb90bd50a37b9060600160405180910390a2505050565b6001600160a01b03918216600090815260056020908152604080832093909416825291909152205460ff1690565b60006001600160e01b031982166380ac58cd60e01b1480610bad57506001600160e01b03198216635b5e139f60e01b145b8061047e57506301ffc9a760e01b6001600160e01b031983161461047e565b61066b828260405180602001604052806000815250610fab565b6000828152600660205260409020610bfe82826117bf565b506040518281527ff8e1a15aba9398e019f0b49df1a4fde98ee17ae345cb5f6b5e2c27f5033e8ce790602001610866565b6000818152600260205260408120546001600160a01b03168061047e57604051637e27328960e01b815260048101849052602401610695565b61071a8383836001610fc2565b6000828152600260205260408120546001600160a01b0390811690831615610ca257610ca28184866110c8565b6001600160a01b03811615610ce057610cbf600085600080610fc2565b6001600160a01b038116600090815260036020526040902080546000190190555b6001600160a01b03851615610d0f576001600160a01b0385166000908152600360205260409020805460010190555b60008481526002602052604080822080546001600160a01b0319166001600160a01b0389811691821790925591518793918516917fddf252ad1be2c89b69c2b068fc378daa952ba7f163c4a11628f55a4df523b3ef91a4949350505050565b6001600160a01b038216610da057604051630b61174360e31b81526001600160a01b0383166004820152602401610695565b6001600160a01b03838116600081815260056020908152604080832094871680845294825291829020805460ff191686151590811790915591519182527f17307eab39ab6107e8899845ad3d59bd9653f200f220920489ca2b5937696c31910160405180910390a3505050565b6001600160a01b0383163b156106f957604051630a85bd0160e11b81526001600160a01b0384169063150b7a0290610e4f90339088908790879060040161187f565b6020604051808303816000875af1925050508015610e8a575060408051601f3d908101601f19168201909252610e87918101906118bc565b60015b610ef3573d808015610eb8576040519150601f19603f3d011682016040523d82523d6000602084013e610ebd565b606091505b508051600003610eeb57604051633250574960e11b81526001600160a01b0385166004820152602401610695565b805181602001fd5b6001600160e01b03198116630a85bd0160e11b14610f2f57604051633250574960e11b81526001600160a01b0385166004820152602401610695565b5050505050565b6060610f4182610c2f565b506000610f5960408051602081019091526000815290565b90506000815111610f795760405180602001604052806000815250610fa4565b80610f838461112c565b604051602001610f94929190611709565b6040516020818303038152906040525b9392505050565b610fb583836111bf565b61071a6000848484610e0d565b8080610fd657506001600160a01b03821615155b15611098576000610fe684610c2f565b90506001600160a01b038316158015906110125750826001600160a01b0316816001600160a01b031614155b801561102557506110238184610b4e565b155b1561104e5760405163a9fbf51f60e01b81526001600160a01b0384166004820152602401610695565b81156110965783856001600160a01b0316826001600160a01b03167f8c5be1e5ebec7d5bd14f71427d1e84f3dd0314c0f7b2291e5b200ac8c7c3b92560405160405180910390a45b505b5050600090815260046020526040902080546001600160a01b0319166001600160a01b0392909216919091179055565b6110d3838383611224565b61071a576001600160a01b03831661110157604051637e27328960e01b815260048101829052602401610695565b60405163177e802f60e01b81526001600160a01b038316600482015260248101829052604401610695565b6060600061113983611287565b600101905060008167ffffffffffffffff81111561115957611159611395565b6040519080825280601f01601f191660200182016040528015611183576020820181803683370190505b5090508181016020015b600019016f181899199a1a9b1b9c1cb0b131b232b360811b600a86061a8153600a850494508461118d57509392505050565b6001600160a01b0382166111e957604051633250574960e11b815260006004820152602401610695565b60006111f783836000610c75565b90506001600160a01b0381161561071a576040516339e3563760e11b815260006004820152602401610695565b60006001600160a01b038316158015906109ac5750826001600160a01b0316846001600160a01b0316148061125e575061125e8484610b4e565b806109ac5750506000908152600460205260409020546001600160a01b03908116911614919050565b60008072184f03e93ff9f4daa797ed6e38ed64bf6a1f0160401b83106112c65772184f03e93ff9f4daa797ed6e38ed64bf6a1f0160401b830492506040015b6d04ee2d6d415b85acef810000000083106112f2576d04ee2d6d415b85acef8100000000830492506020015b662386f26fc10000831061131057662386f26fc10000830492506010015b6305f5e1008310611328576305f5e100830492506008015b612710831061133c57612710830492506004015b6064831061134e576064830492506002015b600a831061047e5760010192915050565b6001600160e01b03198116811461137557600080fd5b50565b60006020828403121561138a57600080fd5b8135610fa48161135f565b634e487b7160e01b600052604160045260246000fd5b600067ffffffffffffffff808411156113c6576113c6611395565b604051601f8501601f19908116603f011681019082821181831017156113ee576113ee611395565b8160405280935085815286868601111561140757600080fd5b858560208301376000602087830101525050509392505050565b6000806040838503121561143457600080fd5b823567ffffffffffffffff81111561144b57600080fd5b8301601f8101851361145c57600080fd5b61146b858235602084016113ab565b95602094909401359450505050565b60005b8381101561149557818101518382015260200161147d565b50506000910152565b600081518084526114b681602086016020860161147a565b601f01601f19169290920160200192915050565b602081526000610fa4602083018461149e565b6000602082840312156114ef57600080fd5b5035919050565b80356001600160a01b038116811461150d57600080fd5b919050565b6000806040838503121561152557600080fd5b61152e836114f6565b946020939093013593505050565b60008060006060848603121561155157600080fd5b61155a846114f6565b9250611568602085016114f6565b9150604084013590509250925092565b60006020828403121561158a57600080fd5b610fa4826114f6565b600080604083850312156115a657600080fd5b50508035926020909101359150565b600080604083850312156115c857600080fd5b6115d1836114f6565b9150602083013580151581146115e657600080fd5b809150509250929050565b6000806000806080858703121561160757600080fd5b611610856114f6565b935061161e602086016114f6565b925060408501359150606085013567ffffffffffffffff81111561164157600080fd5b8501601f8101871361165257600080fd5b611661878235602084016113ab565b91505092959194509250565b6000806040838503121561168057600080fd5b611689836114f6565b9150611697602084016114f6565b90509250929050565b634e487b7160e01b600052601160045260246000fd5b6000600182016116c8576116c86116a0565b5060010190565b600181811c908216806116e357607f821691505b60208210810361170357634e487b7160e01b600052602260045260246000fd5b50919050565b6000835161171b81846020880161147a565b83519083019061172f81836020880161147a565b01949350505050565b808202811582820484141761047e5761047e6116a0565b60008261176c57634e487b7160e01b600052601260045260246000fd5b500490565b601f82111561071a57600081815260208120601f850160051c810160208610156117985750805b601f850160051c820191505b818110156117b7578281556001016117a4565b505050505050565b815167ffffffffffffffff8111156117d9576117d9611395565b6117ed816117e784546116cf565b84611771565b602080601f831160018114611822576000841561180a5750858301515b600019600386901b1c1916600185901b1785556117b7565b600085815260208120601f198616915b8281101561185157888601518255948401946001909101908401611832565b508582101561186f5787850151600019600388901b60f8161c191681555b5050505050600190811b01905550565b6001600160a01b03858116825284166020820152604081018390526080606082018190526000906118b29083018461149e565b9695505050505050565b6000602082840312156118ce57600080fd5b8151610fa48161135f56fea2646970667358221220ec9af670e10adbb18f34c8417390cf5a6573a6b4b5b17c0c03cc28670305c31064736f6c63430008140033",
  "linkReferences": {},
  "deployedLinkReferences": {}
}